{"abi":[{"type":"constructor","inputs":[{"name":"_quorumPercentage","type":"uint256","internalType":"uint256"},{"name":"_votingDuration","type":"uint256","internalType":"uint256"}],"stateMutability":"nonpayable"},{"type":"receive","stateMutability":"payable"},{"type":"function","name":"addMember","inputs":[{"name":"member","type":"address","internalType":"address"}],"outputs":[],"stateMutability":"nonpayable"},{"type":"function","name":"admin","inputs":[],"outputs":[{"name":"","type":"address","internalType":"address"}],"stateMutability":"view"},{"type":"function","name":"cancelProposal","inputs":[{"name":"proposalId","type":"uint256","internalType":"uint256"}],"outputs":[],"stateMutability":"nonpayable"},{"type":"function","name":"createProposal","inputs":[{"name":"title","type":"string","internalType":"string"},{"name":"description","type":"string","internalType":"string"},{"name":"target","type":"address","internalType":"address"},{"name":"callData","type":"bytes","internalType":"bytes"},{"name":"value","type":"uint256","internalType":"uint256"}],"outputs":[{"name":"","type":"uint256","internalType":"uint256"}],"stateMutability":"nonpayable"},{"type":"function","name":"executeProposal","inputs":[{"name":"proposalId","type":"uint256","internalType":"uint256"}],"outputs":[],"stateMutability":"nonpayable"},{"type":"function","name":"finalizeProposal","inputs":[{"name":"proposalId","type":"uint256","internalType":"uint256"}],"outputs":[],"stateMutability":"nonpayable"},{"type":"function","name":"getContractBalance","inputs":[],"outputs":[{"name":"","type":"uint256","internalType":"uint256"}],"stateMutability":"view"},{"type":"function","name":"getProposal","inputs":[{"name":"proposalId","type":"uint256","internalType":"uint256"}],"outputs":[{"name":"","type":"uint256","internalType":"uint256"},{"name":"","type":"address","internalType":"address"},{"name":"","type":"string","internalType":"string"},{"name":"","type":"uint256","internalType":"uint256"},{"name":"","type":"uint256","internalType":"uint256"},{"name":"","type":"uint256","internalType":"uint256"},{"name":"","type":"uint8","internalType":"enum DAO.ProposalStatus"},{"name":"","type":"bool","internalType":"bool"}],"stateMutability":"view"},{"type":"function","name":"hasVoted","inputs":[{"name":"","type":"uint256","internalType":"uint256"},{"name":"","type":"address","internalType":"address"}],"outputs":[{"name":"","type":"bool","internalType":"bool"}],"stateMutability":"view"},{"type":"function","name":"memberCount","inputs":[],"outputs":[{"name":"","type":"uint256","internalType":"uint256"}],"stateMutability":"view"},{"type":"function","name":"memberJoinedAt","inputs":[{"name":"","type":"address","internalType":"address"}],"outputs":[{"name":"","type":"uint256","internalType":"uint256"}],"stateMutability":"view"},{"type":"function","name":"members","inputs":[{"name":"","type":"address","internalType":"address"}],"outputs":[{"name":"","type":"bool","internalType":"bool"}],"stateMutability":"view"},{"type":"function","name":"proposalCount","inputs":[],"outputs":[{"name":"","type":"uint256","internalType":"uint256"}],"stateMutability":"view"},{"type":"function","name":"proposals","inputs":[{"name":"","type":"uint256","internalType":"uint256"}],"outputs":[{"name":"id","type":"uint256","internalType":"uint256"},{"name":"proposer","type":"address","internalType":"address"},{"name":"title","type":"string","internalType":"string"},{"name":"description","type":"string","internalType":"string"},{"name":"target","type":"address","internalType":"address"},{"name":"callData","type":"bytes","internalType":"bytes"},{"name":"value","type":"uint256","internalType":"uint256"},{"name":"votesFor","type":"uint256","internalType":"uint256"},{"name":"votesAgainst","type":"uint256","internalType":"uint256"},{"name":"deadline","type":"uint256","internalType":"uint256"},{"name":"status","type":"uint8","internalType":"enum DAO.ProposalStatus"},{"name":"executed","type":"bool","internalType":"bool"}],"stateMutability":"view"},{"type":"function","name":"quorumPercentage","inputs":[],"outputs":[{"name":"","type":"uint256","internalType":"uint256"}],"stateMutability":"view"},{"type":"function","name":"removeMember","inputs":[{"name":"member","type":"address","internalType":"address"}],"outputs":[],"stateMutability":"nonpayable"},{"type":"function","name":"vote","inputs":[{"name":"proposalId","type":"uint256","internalType":"uint256"},{"name":"support","type":"bool","internalType":"bool"}],"outputs":[],"stateMutability":"nonpayable"},{"type":"function","name":"votingDuration","inputs":[],"outputs":[{"name":"","type":"uint256","internalType":"uint256"}],"stateMutability":"view"},{"type":"event","name":"MemberAdded","inputs":[{"name":"member","type":"address","indexed":true,"internalType":"address"}],"anonymous":false},{"type":"event","name":"MemberRemoved","inputs":[{"name":"member","type":"address","indexed":true,"internalType":"address"}],"anonymous":false},{"type":"event","name":"ProposalCancelled","inputs":[{"name":"id","type":"uint256","indexed":true,"internalType":"uint256"}],"anonymous":false},{"type":"event","name":"ProposalCreated","inputs":[{"name":"id","type":"uint256","indexed":true,"internalType":"uint256"},{"name":"proposer","type":"address","indexed":true,"internalType":"address"},{"name":"title","type":"string","indexed":false,"internalType":"string"}],"anonymous":false},{"type":"event","name":"ProposalExecuted","inputs":[{"name":"id","type":"uint256","indexed":true,"internalType":"uint256"}],"anonymous":false},{"type":"event","name":"VoteCast","inputs":[{"name":"proposalId","type":"uint256","indexed":true,"internalType":"uint256"},{"name":"voter","type":"address","indexed":true,"internalType":"address"},{"name":"support","type":"bool","indexed":false,"internalType":"bool"}],"anonymous":false}],"bytecode":{"object":"0x608060405234801561000f575f5ffd5b506040516135be3803806135be833981810160405281019061003191906101aa565b5f82118015610041575060648211155b610080576040517f08c379a000000000000000000000000000000000000000000000000000000000815260040161007790610242565b60405180910390fd5b335f5f6101000a81548173ffffffffffffffffffffffffffffffffffffffff021916908373ffffffffffffffffffffffffffffffffffffffff1602179055508160028190555080600381905550600160055f3373ffffffffffffffffffffffffffffffffffffffff1673ffffffffffffffffffffffffffffffffffffffff1681526020019081526020015f205f6101000a81548160ff0219169083151502179055504260065f3373ffffffffffffffffffffffffffffffffffffffff1673ffffffffffffffffffffffffffffffffffffffff1681526020019081526020015f208190555060016004819055505050610260565b5f5ffd5b5f819050919050565b61018981610177565b8114610193575f5ffd5b50565b5f815190506101a481610180565b92915050565b5f5f604083850312156101c0576101bf610173565b5b5f6101cd85828601610196565b92505060206101de85828601610196565b9150509250929050565b5f82825260208201905092915050565b7f496e76616c69642071756f72756d0000000000000000000000000000000000005f82015250565b5f61022c600e836101e8565b9150610237826101f8565b602082019050919050565b5f6020820190508181035f83015261025981610220565b9050919050565b6133518061026d5f395ff3fe60806040526004361061010c575f3560e01c80636f9fb98a11610094578063ca6d56dc11610063578063ca6d56dc1461039d578063da35c664146103c5578063e0a8f6f5146103ef578063f7b2f72214610417578063f851a4401461045357610113565b80636f9fb98a146102cc578063b980dbba146102f6578063c7f758a814610332578063c9d27afe1461037557610113565b806311aee380116100db57806311aee380146101ea578063132002fc14610214578063438596321461023e5780634fa76ec91461027a5780635652077c146102a457610113565b8063013cf08b1461011757806308ae4b0c1461015e5780630b1ca49a1461019a5780630d61b519146101c257610113565b3661011357005b5f5ffd5b348015610122575f5ffd5b5061013d60048036038101906101389190611e33565b61047d565b6040516101559c9b9a99989796959493929190611ffb565b60405180910390f35b348015610169575f5ffd5b50610184600480360381019061017f91906120f2565b6106c2565b604051610191919061211d565b60405180910390f35b3480156101a5575f5ffd5b506101c060048036038101906101bb91906120f2565b6106df565b005b3480156101cd575f5ffd5b506101e860048036038101906101e39190611e33565b610935565b005b3480156101f5575f5ffd5b506101fe610cd3565b60405161020b9190612136565b60405180910390f35b34801561021f575f5ffd5b50610228610cd9565b6040516102359190612136565b60405180910390f35b348015610249575f5ffd5b50610264600480360381019061025f919061214f565b610cdf565b604051610271919061211d565b60405180910390f35b348015610285575f5ffd5b5061028e610d09565b60405161029b9190612136565b60405180910390f35b3480156102af575f5ffd5b506102ca60048036038101906102c59190611e33565b610d0f565b005b3480156102d7575f5ffd5b506102e0610f0d565b6040516102ed9190612136565b60405180910390f35b348015610301575f5ffd5b5061031c600480360381019061031791906120f2565b610f14565b6040516103299190612136565b60405180910390f35b34801561033d575f5ffd5b5061035860048036038101906103539190611e33565b610f29565b60405161036c98979695949392919061218d565b60405180910390f35b348015610380575f5ffd5b5061039b6004803603810190610396919061223a565b6112bf565b005b3480156103a8575f5ffd5b506103c360048036038101906103be91906120f2565b6115ed565b005b3480156103d0575f5ffd5b506103d9611867565b6040516103e69190612136565b60405180910390f35b3480156103fa575f5ffd5b5061041560048036038101906104109190611e33565b61186d565b005b348015610422575f5ffd5b5061043d60048036038101906104389190612442565b611a81565b60405161044a9190612136565b60405180910390f35b34801561045e575f5ffd5b50610467611dcb565b604051610474919061250d565b60405180910390f35b6007602052805f5260405f205f91509050805f015490806001015f9054906101000a900473ffffffffffffffffffffffffffffffffffffffff16908060020180546104c790612553565b80601f01602080910402602001604051908101604052809291908181526020018280546104f390612553565b801561053e5780601f106105155761010080835404028352916020019161053e565b820191905f5260205f20905b81548152906001019060200180831161052157829003601f168201915b50505050509080600301805461055390612553565b80601f016020809104026020016040519081016040528092919081815260200182805461057f90612553565b80156105ca5780601f106105a1576101008083540402835291602001916105ca565b820191905f5260205f20905b8154815290600101906020018083116105ad57829003601f168201915b505050505090806004015f9054906101000a900473ffffffffffffffffffffffffffffffffffffffff169080600501805461060490612553565b80601f016020809104026020016040519081016040528092919081815260200182805461063090612553565b801561067b5780601f106106525761010080835404028352916020019161067b565b820191905f5260205f20905b81548152906001019060200180831161065e57829003601f168201915b50505050509080600601549080600701549080600801549080600901549080600a015f9054906101000a900460ff169080600a0160019054906101000a900460ff1690508c565b6005602052805f5260405f205f915054906101000a900460ff1681565b5f5f9054906101000a900473ffffffffffffffffffffffffffffffffffffffff1673ffffffffffffffffffffffffffffffffffffffff163373ffffffffffffffffffffffffffffffffffffffff161461076d576040517f08c379a0000000000000000000000000000000000000000000000000000000008152600401610764906125cd565b60405180910390fd5b60055f8273ffffffffffffffffffffffffffffffffffffffff1673ffffffffffffffffffffffffffffffffffffffff1681526020019081526020015f205f9054906101000a900460ff166107f6576040517f08c379a00000000000000000000000000000000000000000000000000000000081526004016107ed90612635565b60405180910390fd5b5f5f9054906101000a900473ffffffffffffffffffffffffffffffffffffffff1673ffffffffffffffffffffffffffffffffffffffff168173ffffffffffffffffffffffffffffffffffffffff1603610884576040517f08c379a000000000000000000000000000000000000000000000000000000000815260040161087b9061269d565b60405180910390fd5b5f60055f8373ffffffffffffffffffffffffffffffffffffffff1673ffffffffffffffffffffffffffffffffffffffff1681526020019081526020015f205f6101000a81548160ff02191690831515021790555060045f8154809291906108ea906126e8565b91905055508073ffffffffffffffffffffffffffffffffffffffff167f6e76fb4c77256006d9c38ec7d82b45a8c8f3c27b1d6766fffc42dfb8de68449260405160405180910390a250565b5f5f9054906101000a900473ffffffffffffffffffffffffffffffffffffffff1673ffffffffffffffffffffffffffffffffffffffff163373ffffffffffffffffffffffffffffffffffffffff16146109c3576040517f08c379a00000000000000000000000000000000000000000000000000000000081526004016109ba906125cd565b60405180910390fd5b806001548110610a08576040517f08c379a00000000000000000000000000000000000000000000000000000000081526004016109ff90612759565b60405180910390fd5b5f60075f8481526020019081526020015f20905060016004811115610a3057610a2f611f6e565b5b81600a015f9054906101000a900460ff166004811115610a5357610a52611f6e565b5b14610a93576040517f08c379a0000000000000000000000000000000000000000000000000000000008152600401610a8a906127c1565b60405180910390fd5b80600a0160019054906101000a900460ff1615610ae5576040517f08c379a0000000000000000000000000000000000000000000000000000000008152600401610adc90612829565b60405180910390fd5b8060060154471015610b2c576040517f08c379a0000000000000000000000000000000000000000000000000000000008152600401610b2390612891565b60405180910390fd5b600181600a0160016101000a81548160ff021916908315150217905550600381600a015f6101000a81548160ff02191690836004811115610b7057610b6f611f6e565b5b02179055505f73ffffffffffffffffffffffffffffffffffffffff16816004015f9054906101000a900473ffffffffffffffffffffffffffffffffffffffff1673ffffffffffffffffffffffffffffffffffffffff1614610ca1575f816004015f9054906101000a900473ffffffffffffffffffffffffffffffffffffffff1673ffffffffffffffffffffffffffffffffffffffff16826006015483600501604051610c1c919061294b565b5f6040518083038185875af1925050503d805f8114610c56576040519150601f19603f3d011682016040523d82523d5f602084013e610c5b565b606091505b5050905080610c9f576040517f08c379a0000000000000000000000000000000000000000000000000000000008152600401610c96906129ab565b60405180910390fd5b505b827f712ae1383f79ac853f8d882153778e0260ef8f03b504e2866e0593e04d2b291f60405160405180910390a2505050565b60045481565b60035481565b6008602052815f5260405f20602052805f5260405f205f915091509054906101000a900460ff1681565b60025481565b806001548110610d54576040517f08c379a0000000000000000000000000000000000000000000000000000000008152600401610d4b90612759565b60405180910390fd5b5f60075f8481526020019081526020015f2090505f6004811115610d7b57610d7a611f6e565b5b81600a015f9054906101000a900460ff166004811115610d9e57610d9d611f6e565b5b14610dde576040517f08c379a0000000000000000000000000000000000000000000000000000000008152600401610dd590612a13565b60405180910390fd5b8060090154421015610e25576040517f08c379a0000000000000000000000000000000000000000000000000000000008152600401610e1c90612a7b565b60405180910390fd5b5f81600801548260070154610e3a9190612a99565b90505f6064600254600454610e4f9190612acc565b610e599190612b3a565b905080821015610e9757600283600a015f6101000a81548160ff02191690836004811115610e8a57610e89611f6e565b5b0217905550505050610f09565b826008015483600701541115610ed857600183600a015f6101000a81548160ff02191690836004811115610ece57610ecd611f6e565b5b0217905550610f05565b600283600a015f6101000a81548160ff02191690836004811115610eff57610efe611f6e565b5b02179055505b5050505b5050565b5f47905090565b6006602052805f5260405f205f915090505481565b5f5f60605f5f5f5f5f886001548110610f77576040517f08c379a0000000000000000000000000000000000000000000000000000000008152600401610f6e90612759565b60405180910390fd5b5f60075f8c81526020019081526020015f20604051806101800160405290815f8201548152602001600182015f9054906101000a900473ffffffffffffffffffffffffffffffffffffffff1673ffffffffffffffffffffffffffffffffffffffff1673ffffffffffffffffffffffffffffffffffffffff16815260200160028201805461100390612553565b80601f016020809104026020016040519081016040528092919081815260200182805461102f90612553565b801561107a5780601f106110515761010080835404028352916020019161107a565b820191905f5260205f20905b81548152906001019060200180831161105d57829003601f168201915b5050505050815260200160038201805461109390612553565b80601f01602080910402602001604051908101604052809291908181526020018280546110bf90612553565b801561110a5780601f106110e15761010080835404028352916020019161110a565b820191905f5260205f20905b8154815290600101906020018083116110ed57829003601f168201915b50505050508152602001600482015f9054906101000a900473ffffffffffffffffffffffffffffffffffffffff1673ffffffffffffffffffffffffffffffffffffffff1673ffffffffffffffffffffffffffffffffffffffff16815260200160058201805461117890612553565b80601f01602080910402602001604051908101604052809291908181526020018280546111a490612553565b80156111ef5780601f106111c6576101008083540402835291602001916111ef565b820191905f5260205f20905b8154815290600101906020018083116111d257829003601f168201915b5050505050815260200160068201548152602001600782015481526020016008820154815260200160098201548152602001600a82015f9054906101000a900460ff16600481111561124457611243611f6e565b5b600481111561125657611255611f6e565b5b8152602001600a820160019054906101000a900460ff1615151515815250509050805f0151816020015182604001518360e00151846101000151856101200151866101400151876101600151995099509950995099509950995099505050919395975091939597565b60055f3373ffffffffffffffffffffffffffffffffffffffff1673ffffffffffffffffffffffffffffffffffffffff1681526020019081526020015f205f9054906101000a900460ff16611348576040517f08c379a000000000000000000000000000000000000000000000000000000000815260040161133f90612bb4565b60405180910390fd5b81600154811061138d576040517f08c379a000000000000000000000000000000000000000000000000000000000815260040161138490612759565b60405180910390fd5b5f60075f8581526020019081526020015f2090505f60048111156113b4576113b3611f6e565b5b81600a015f9054906101000a900460ff1660048111156113d7576113d6611f6e565b5b14611417576040517f08c379a000000000000000000000000000000000000000000000000000000000815260040161140e90612c1c565b60405180910390fd5b8060090154421061145d576040517f08c379a000000000000000000000000000000000000000000000000000000000815260040161145490612c84565b60405180910390fd5b60085f8581526020019081526020015f205f3373ffffffffffffffffffffffffffffffffffffffff1673ffffffffffffffffffffffffffffffffffffffff1681526020019081526020015f205f9054906101000a900460ff16156114f6576040517f08c379a00000000000000000000000000000000000000000000000000000000081526004016114ed90612cec565b60405180910390fd5b600160085f8681526020019081526020015f205f3373ffffffffffffffffffffffffffffffffffffffff1673ffffffffffffffffffffffffffffffffffffffff1681526020019081526020015f205f6101000a81548160ff021916908315150217905550821561157e57806007015f81548092919061157490612d0a565b9190505550611598565b806008015f81548092919061159290612d0a565b91905055505b3373ffffffffffffffffffffffffffffffffffffffff16847fe71fcdac32df1877c1700e7bda2a03157e20993363a28fc35ac495cefc76e4d4856040516115df919061211d565b60405180910390a350505050565b5f5f9054906101000a900473ffffffffffffffffffffffffffffffffffffffff1673ffffffffffffffffffffffffffffffffffffffff163373ffffffffffffffffffffffffffffffffffffffff161461167b576040517f08c379a0000000000000000000000000000000000000000000000000000000008152600401611672906125cd565b60405180910390fd5b5f73ffffffffffffffffffffffffffffffffffffffff168173ffffffffffffffffffffffffffffffffffffffff16036116e9576040517f08c379a00000000000000000000000000000000000000000000000000000000081526004016116e090612d9b565b60405180910390fd5b60055f8273ffffffffffffffffffffffffffffffffffffffff1673ffffffffffffffffffffffffffffffffffffffff1681526020019081526020015f205f9054906101000a900460ff1615611773576040517f08c379a000000000000000000000000000000000000000000000000000000000815260040161176a90612e03565b60405180910390fd5b600160055f8373ffffffffffffffffffffffffffffffffffffffff1673ffffffffffffffffffffffffffffffffffffffff1681526020019081526020015f205f6101000a81548160ff0219169083151502179055504260065f8373ffffffffffffffffffffffffffffffffffffffff1673ffffffffffffffffffffffffffffffffffffffff1681526020019081526020015f208190555060045f81548092919061181c90612d0a565b91905055508073ffffffffffffffffffffffffffffffffffffffff167fb251eb052afc73ffd02ffe85ad79990a8b3fed60d76dbc2fa2fdd7123dffd91460405160405180910390a250565b60015481565b8060015481106118b2576040517f08c379a00000000000000000000000000000000000000000000000000000000081526004016118a990612759565b60405180910390fd5b5f60075f8481526020019081526020015f2090505f60048111156118d9576118d8611f6e565b5b81600a015f9054906101000a900460ff1660048111156118fc576118fb611f6e565b5b1461193c576040517f08c379a000000000000000000000000000000000000000000000000000000000815260040161193390612e6b565b60405180910390fd5b806001015f9054906101000a900473ffffffffffffffffffffffffffffffffffffffff1673ffffffffffffffffffffffffffffffffffffffff163373ffffffffffffffffffffffffffffffffffffffff1614806119e457505f5f9054906101000a900473ffffffffffffffffffffffffffffffffffffffff1673ffffffffffffffffffffffffffffffffffffffff163373ffffffffffffffffffffffffffffffffffffffff16145b611a23576040517f08c379a0000000000000000000000000000000000000000000000000000000008152600401611a1a90612ed3565b60405180910390fd5b600481600a015f6101000a81548160ff02191690836004811115611a4a57611a49611f6e565b5b0217905550827f416e669c63d9a3a5e36ee7cc7e2104b8db28ccd286aa18966e98fa230c73b08c60405160405180910390a2505050565b5f60055f3373ffffffffffffffffffffffffffffffffffffffff1673ffffffffffffffffffffffffffffffffffffffff1681526020019081526020015f205f9054906101000a900460ff16611b0b576040517f08c379a0000000000000000000000000000000000000000000000000000000008152600401611b0290612bb4565b60405180910390fd5b5f865111611b4e576040517f08c379a0000000000000000000000000000000000000000000000000000000008152600401611b4590612f3b565b60405180910390fd5b5f60015490506040518061018001604052808281526020013373ffffffffffffffffffffffffffffffffffffffff1681526020018881526020018781526020018673ffffffffffffffffffffffffffffffffffffffff1681526020018581526020018481526020015f81526020015f815260200160035442611bd09190612a99565b81526020015f6004811115611be857611be7611f6e565b5b81526020015f151581525060075f8381526020019081526020015f205f820151815f01556020820151816001015f6101000a81548173ffffffffffffffffffffffffffffffffffffffff021916908373ffffffffffffffffffffffffffffffffffffffff1602179055506040820151816002019081611c67919061310a565b506060820151816003019081611c7d919061310a565b506080820151816004015f6101000a81548173ffffffffffffffffffffffffffffffffffffffff021916908373ffffffffffffffffffffffffffffffffffffffff16021790555060a0820151816005019081611cd9919061322c565b5060c0820151816006015560e082015181600701556101008201518160080155610120820151816009015561014082015181600a015f6101000a81548160ff02191690836004811115611d2f57611d2e611f6e565b5b021790555061016082015181600a0160016101000a81548160ff02191690831515021790555090505060015f815480929190611d6a90612d0a565b91905055503373ffffffffffffffffffffffffffffffffffffffff16817f7585f467599d0f008985f231af99293be388626ac16ca59505c2f8f88969cd6389604051611db691906132fb565b60405180910390a38091505095945050505050565b5f5f9054906101000a900473ffffffffffffffffffffffffffffffffffffffff1681565b5f604051905090565b5f5ffd5b5f5ffd5b5f819050919050565b611e1281611e00565b8114611e1c575f5ffd5b50565b5f81359050611e2d81611e09565b92915050565b5f60208284031215611e4857611e47611df8565b5b5f611e5584828501611e1f565b91505092915050565b611e6781611e00565b82525050565b5f73ffffffffffffffffffffffffffffffffffffffff82169050919050565b5f611e9682611e6d565b9050919050565b611ea681611e8c565b82525050565b5f81519050919050565b5f82825260208201905092915050565b8281835e5f83830152505050565b5f601f19601f8301169050919050565b5f611eee82611eac565b611ef88185611eb6565b9350611f08818560208601611ec6565b611f1181611ed4565b840191505092915050565b5f81519050919050565b5f82825260208201905092915050565b5f611f4082611f1c565b611f4a8185611f26565b9350611f5a818560208601611ec6565b611f6381611ed4565b840191505092915050565b7f4e487b71000000000000000000000000000000000000000000000000000000005f52602160045260245ffd5b60058110611fac57611fab611f6e565b5b50565b5f819050611fbc82611f9b565b919050565b5f611fcb82611faf565b9050919050565b611fdb81611fc1565b82525050565b5f8115159050919050565b611ff581611fe1565b82525050565b5f6101808201905061200f5f83018f611e5e565b61201c602083018e611e9d565b818103604083015261202e818d611ee4565b90508181036060830152612042818c611ee4565b9050612051608083018b611e9d565b81810360a0830152612063818a611f36565b905061207260c0830189611e5e565b61207f60e0830188611e5e565b61208d610100830187611e5e565b61209b610120830186611e5e565b6120a9610140830185611fd2565b6120b7610160830184611fec565b9d9c50505050505050505050505050565b6120d181611e8c565b81146120db575f5ffd5b50565b5f813590506120ec816120c8565b92915050565b5f6020828403121561210757612106611df8565b5b5f612114848285016120de565b91505092915050565b5f6020820190506121305f830184611fec565b92915050565b5f6020820190506121495f830184611e5e565b92915050565b5f5f6040838503121561216557612164611df8565b5b5f61217285828601611e1f565b9250506020612183858286016120de565b9150509250929050565b5f610100820190506121a15f83018b611e5e565b6121ae602083018a611e9d565b81810360408301526121c08189611ee4565b90506121cf6060830188611e5e565b6121dc6080830187611e5e565b6121e960a0830186611e5e565b6121f660c0830185611fd2565b61220360e0830184611fec565b9998505050505050505050565b61221981611fe1565b8114612223575f5ffd5b50565b5f8135905061223481612210565b92915050565b5f5f604083850312156122505761224f611df8565b5b5f61225d85828601611e1f565b925050602061226e85828601612226565b9150509250929050565b5f5ffd5b5f5ffd5b7f4e487b71000000000000000000000000000000000000000000000000000000005f52604160045260245ffd5b6122b682611ed4565b810181811067ffffffffffffffff821117156122d5576122d4612280565b5b80604052505050565b5f6122e7611def565b90506122f382826122ad565b919050565b5f67ffffffffffffffff82111561231257612311612280565b5b61231b82611ed4565b9050602081019050919050565b828183375f83830152505050565b5f612348612343846122f8565b6122de565b9050828152602081018484840111156123645761236361227c565b5b61236f848285612328565b509392505050565b5f82601f83011261238b5761238a612278565b5b813561239b848260208601612336565b91505092915050565b5f67ffffffffffffffff8211156123be576123bd612280565b5b6123c782611ed4565b9050602081019050919050565b5f6123e66123e1846123a4565b6122de565b9050828152602081018484840111156124025761240161227c565b5b61240d848285612328565b509392505050565b5f82601f83011261242957612428612278565b5b81356124398482602086016123d4565b91505092915050565b5f5f5f5f5f60a0868803121561245b5761245a611df8565b5b5f86013567ffffffffffffffff81111561247857612477611dfc565b5b61248488828901612377565b955050602086013567ffffffffffffffff8111156124a5576124a4611dfc565b5b6124b188828901612377565b94505060406124c2888289016120de565b935050606086013567ffffffffffffffff8111156124e3576124e2611dfc565b5b6124ef88828901612415565b925050608061250088828901611e1f565b9150509295509295909350565b5f6020820190506125205f830184611e9d565b92915050565b7f4e487b71000000000000000000000000000000000000000000000000000000005f52602260045260245ffd5b5f600282049050600182168061256a57607f821691505b60208210810361257d5761257c612526565b5b50919050565b7f4f6e6c792061646d696e000000000000000000000000000000000000000000005f82015250565b5f6125b7600a83611eb6565b91506125c282612583565b602082019050919050565b5f6020820190508181035f8301526125e4816125ab565b9050919050565b7f4e6f742061206d656d62657200000000000000000000000000000000000000005f82015250565b5f61261f600c83611eb6565b915061262a826125eb565b602082019050919050565b5f6020820190508181035f83015261264c81612613565b9050919050565b7f43616e6e6f742072656d6f76652061646d696e000000000000000000000000005f82015250565b5f612687601383611eb6565b915061269282612653565b602082019050919050565b5f6020820190508181035f8301526126b48161267b565b9050919050565b7f4e487b71000000000000000000000000000000000000000000000000000000005f52601160045260245ffd5b5f6126f282611e00565b91505f8203612704576127036126bb565b5b600182039050919050565b7f50726f706f73616c20646f6573206e6f742065786973740000000000000000005f82015250565b5f612743601783611eb6565b915061274e8261270f565b602082019050919050565b5f6020820190508181035f83015261277081612737565b9050919050565b7f50726f706f73616c206e6f7420706173736564000000000000000000000000005f82015250565b5f6127ab601383611eb6565b91506127b682612777565b602082019050919050565b5f6020820190508181035f8301526127d88161279f565b9050919050565b7f416c7265616479206578656375746564000000000000000000000000000000005f82015250565b5f612813601083611eb6565b915061281e826127df565b602082019050919050565b5f6020820190508181035f83015261284081612807565b9050919050565b7f496e73756666696369656e742062616c616e63650000000000000000000000005f82015250565b5f61287b601483611eb6565b915061288682612847565b602082019050919050565b5f6020820190508181035f8301526128a88161286f565b9050919050565b5f81905092915050565b5f819050815f5260205f209050919050565b5f81546128d781612553565b6128e181866128af565b9450600182165f81146128fb576001811461291057612942565b60ff1983168652811515820286019350612942565b612919856128b9565b5f5b8381101561293a5781548189015260018201915060208101905061291b565b838801955050505b50505092915050565b5f61295682846128cb565b915081905092915050565b7f457865637574696f6e206661696c6564000000000000000000000000000000005f82015250565b5f612995601083611eb6565b91506129a082612961565b602082019050919050565b5f6020820190508181035f8301526129c281612989565b9050919050565b7f416c72656164792066696e616c697a65640000000000000000000000000000005f82015250565b5f6129fd601183611eb6565b9150612a08826129c9565b602082019050919050565b5f6020820190508181035f830152612a2a816129f1565b9050919050565b7f566f74696e67206e6f7420656e646564000000000000000000000000000000005f82015250565b5f612a65601083611eb6565b9150612a7082612a31565b602082019050919050565b5f6020820190508181035f830152612a9281612a59565b9050919050565b5f612aa382611e00565b9150612aae83611e00565b9250828201905080821115612ac657612ac56126bb565b5b92915050565b5f612ad682611e00565b9150612ae183611e00565b9250828202612aef81611e00565b91508282048414831517612b0657612b056126bb565b5b5092915050565b7f4e487b71000000000000000000000000000000000000000000000000000000005f52601260045260245ffd5b5f612b4482611e00565b9150612b4f83611e00565b925082612b5f57612b5e612b0d565b5b828204905092915050565b7f4f6e6c79206d656d6265727300000000000000000000000000000000000000005f82015250565b5f612b9e600c83611eb6565b9150612ba982612b6a565b602082019050919050565b5f6020820190508181035f830152612bcb81612b92565b9050919050565b7f50726f706f73616c206e6f7420616374697665000000000000000000000000005f82015250565b5f612c06601383611eb6565b9150612c1182612bd2565b602082019050919050565b5f6020820190508181035f830152612c3381612bfa565b9050919050565b7f566f74696e6720656e64656400000000000000000000000000000000000000005f82015250565b5f612c6e600c83611eb6565b9150612c7982612c3a565b602082019050919050565b5f6020820190508181035f830152612c9b81612c62565b9050919050565b7f416c726561647920766f746564000000000000000000000000000000000000005f82015250565b5f612cd6600d83611eb6565b9150612ce182612ca2565b602082019050919050565b5f6020820190508181035f830152612d0381612cca565b9050919050565b5f612d1482611e00565b91507fffffffffffffffffffffffffffffffffffffffffffffffffffffffffffffffff8203612d4657612d456126bb565b5b600182019050919050565b7f496e76616c6964206164647265737300000000000000000000000000000000005f82015250565b5f612d85600f83611eb6565b9150612d9082612d51565b602082019050919050565b5f6020820190508181035f830152612db281612d79565b9050919050565b7f416c72656164792061206d656d626572000000000000000000000000000000005f82015250565b5f612ded601083611eb6565b9150612df882612db9565b602082019050919050565b5f6020820190508181035f830152612e1a81612de1565b9050919050565b7f43616e6e6f742063616e63656c000000000000000000000000000000000000005f82015250565b5f612e55600d83611eb6565b9150612e6082612e21565b602082019050919050565b5f6020820190508181035f830152612e8281612e49565b9050919050565b7f4e6f7420617574686f72697a65640000000000000000000000000000000000005f82015250565b5f612ebd600e83611eb6565b9150612ec882612e89565b602082019050919050565b5f6020820190508181035f830152612eea81612eb1565b9050919050565b7f5469746c652063616e6e6f7420626520656d70747900000000000000000000005f82015250565b5f612f25601583611eb6565b9150612f3082612ef1565b602082019050919050565b5f6020820190508181035f830152612f5281612f19565b9050919050565b5f819050815f5260205f209050919050565b5f6020601f8301049050919050565b5f82821b905092915050565b5f60088302612fb57fffffffffffffffffffffffffffffffffffffffffffffffffffffffffffffffff82612f7a565b612fbf8683612f7a565b95508019841693508086168417925050509392505050565b5f819050919050565b5f612ffa612ff5612ff084611e00565b612fd7565b611e00565b9050919050565b5f819050919050565b61301383612fe0565b61302761301f82613001565b848454612f86565b825550505050565b5f5f905090565b61303e61302f565b61304981848461300a565b505050565b5f5b8281101561306f576130645f828401613036565b600181019050613050565b505050565b601f8211156130c257828211156130c15761308e81612f59565b61309783612f6b565b6130a085612f6b565b60208610156130ad575f90505b8083016130bc8284038261304e565b505050505b5b505050565b5f82821c905092915050565b5f6130e25f19846008026130c7565b1980831691505092915050565b5f6130fa83836130d3565b9150826002028217905092915050565b61311382611eac565b67ffffffffffffffff81111561312c5761312b612280565b5b6131368254612553565b613141828285613074565b5f60209050601f831160018114613172575f8415613160578287015190505b61316a85826130ef565b8655506131d1565b601f19841661318086612f59565b5f5b828110156131a757848901518255600182019150602085019450602081019050613182565b868310156131c457848901516131c0601f8916826130d3565b8355505b6001600288020188555050505b505050505050565b601f8211156132275782821115613226576131f3816128b9565b6131fc83612f6b565b61320585612f6b565b6020861015613212575f90505b8083016132218284038261304e565b505050505b5b505050565b61323582611f1c565b67ffffffffffffffff81111561324e5761324d612280565b5b6132588254612553565b6132638282856131d9565b5f60209050601f831160018114613294575f8415613282578287015190505b61328c85826130ef565b8655506132f3565b601f1984166132a2866128b9565b5f5b828110156132c9578489015182556001820191506020850194506020810190506132a4565b868310156132e657848901516132e2601f8916826130d3565b8355505b6001600288020188555050505b505050505050565b5f6020820190508181035f8301526133138184611ee4565b90509291505056fea264697066735822122019edf4f5599f7b67dfe571b2362910d735439ee16d006e13f81b9ca45cbef81564736f6c63430008230033","linkReferences":{}},"methodIdentifiers":{"addMember(address)":"ca6d56dc","admin()":"f851a440","cancelProposal(uint256)":"e0a8f6f5","createProposal(string,string,address,bytes,uint256)":"f7b2f722","executeProposal(uint256)":"0d61b519","finalizeProposal(uint256)":"5652077c","getContractBalance()":"6f9fb98a","getProposal(uint256)":"c7f758a8","hasVoted(uint256,address)":"43859632","memberCount()":"11aee380","memberJoinedAt(address)":"b980dbba","members(address)":"08ae4b0c","proposalCount()":"da35c664","proposals(uint256)":"013cf08b","quorumPercentage()":"4fa76ec9","removeMember(address)":"0b1ca49a","vote(uint256,bool)":"c9d27afe","votingDuration()":"132002fc"},"id":19}